{
  "_format": "hh-sol-artifact-1",
  "contractName": "DonorAfrica",
  "sourceName": "contracts/DonorAfrica.sol",
  "abi": [
    {
      "inputs": [
        {
          "internalType": "address",
          "name": "_usdcToken",
          "type": "address"
        }
      ],
      "stateMutability": "nonpayable",
      "type": "constructor"
    },
    {
      "anonymous": false,
      "inputs": [
        {
          "indexed": false,
          "internalType": "address",
          "name": "donor",
          "type": "address"
        },
        {
          "indexed": false,
          "internalType": "uint256",
          "name": "amount",
          "type": "uint256"
        }
      ],
      "name": "DonationMade",
      "type": "event"
    },
    {
      "anonymous": false,
      "inputs": [
        {
          "indexed": false,
          "internalType": "address",
          "name": "donor",
          "type": "address"
        }
      ],
      "name": "DonorRegistered",
      "type": "event"
    },
    {
      "anonymous": false,
      "inputs": [
        {
          "indexed": false,
          "internalType": "uint256",
          "name": "totalAmount",
          "type": "uint256"
        },
        {
          "indexed": false,
          "internalType": "uint256",
          "name": "numSchools",
          "type": "uint256"
        }
      ],
      "name": "FundsDistributed",
      "type": "event"
    },
    {
      "anonymous": false,
      "inputs": [
        {
          "indexed": false,
          "internalType": "address",
          "name": "student",
          "type": "address"
        },
        {
          "indexed": false,
          "internalType": "uint256",
          "name": "amount",
          "type": "uint256"
        }
      ],
      "name": "FundsWithdrawn",
      "type": "event"
    },
    {
      "anonymous": false,
      "inputs": [
        {
          "indexed": false,
          "internalType": "address",
          "name": "school",
          "type": "address"
        }
      ],
      "name": "SchoolVerified",
      "type": "event"
    },
    {
      "anonymous": false,
      "inputs": [
        {
          "indexed": false,
          "internalType": "address",
          "name": "student",
          "type": "address"
        }
      ],
      "name": "StudentVerified",
      "type": "event"
    },
    {
      "inputs": [],
      "name": "claimFunds",
      "outputs": [],
      "stateMutability": "nonpayable",
      "type": "function"
    },
    {
      "inputs": [],
      "name": "distributeFunds",
      "outputs": [],
      "stateMutability": "nonpayable",
      "type": "function"
    },
    {
      "inputs": [
        {
          "internalType": "uint256",
          "name": "amount",
          "type": "uint256"
        }
      ],
      "name": "donate",
      "outputs": [],
      "stateMutability": "nonpayable",
      "type": "function"
    },
    {
      "inputs": [
        {
          "internalType": "address",
          "name": "",
          "type": "address"
        }
      ],
      "name": "donors",
      "outputs": [
        {
          "internalType": "bool",
          "name": "isRegistered",
          "type": "bool"
        },
        {
          "internalType": "uint256",
          "name": "totalDonated",
          "type": "uint256"
        }
      ],
      "stateMutability": "view",
      "type": "function"
    },
    {
      "inputs": [],
      "name": "getBalance",
      "outputs": [
        {
          "internalType": "uint256",
          "name": "",
          "type": "uint256"
        }
      ],
      "stateMutability": "view",
      "type": "function"
    },
    {
      "inputs": [
        {
          "internalType": "uint256",
          "name": "_timestamp",
          "type": "uint256"
        }
      ],
      "name": "getMonth",
      "outputs": [
        {
          "internalType": "uint256",
          "name": "",
          "type": "uint256"
        }
      ],
      "stateMutability": "pure",
      "type": "function"
    },
    {
      "inputs": [
        {
          "internalType": "address",
          "name": "_donor",
          "type": "address"
        }
      ],
      "name": "isDonorRegistered",
      "outputs": [
        {
          "internalType": "bool",
          "name": "",
          "type": "bool"
        }
      ],
      "stateMutability": "view",
      "type": "function"
    },
    {
      "inputs": [
        {
          "internalType": "address",
          "name": "_school",
          "type": "address"
        }
      ],
      "name": "isSchoolVerified",
      "outputs": [
        {
          "internalType": "bool",
          "name": "",
          "type": "bool"
        }
      ],
      "stateMutability": "view",
      "type": "function"
    },
    {
      "inputs": [
        {
          "internalType": "address",
          "name": "_student",
          "type": "address"
        }
      ],
      "name": "isStudentVerified",
      "outputs": [
        {
          "internalType": "bool",
          "name": "",
          "type": "bool"
        }
      ],
      "stateMutability": "view",
      "type": "function"
    },
    {
      "inputs": [],
      "name": "lastDistribution",
      "outputs": [
        {
          "internalType": "uint256",
          "name": "",
          "type": "uint256"
        }
      ],
      "stateMutability": "view",
      "type": "function"
    },
    {
      "inputs": [],
      "name": "registerDonor",
      "outputs": [],
      "stateMutability": "nonpayable",
      "type": "function"
    },
    {
      "inputs": [],
      "name": "registerSchool",
      "outputs": [],
      "stateMutability": "nonpayable",
      "type": "function"
    },
    {
      "inputs": [
        {
          "internalType": "address",
          "name": "_school",
          "type": "address"
        }
      ],
      "name": "registerStudent",
      "outputs": [],
      "stateMutability": "nonpayable",
      "type": "function"
    },
    {
      "inputs": [
        {
          "internalType": "uint256",
          "name": "",
          "type": "uint256"
        }
      ],
      "name": "schoolAddresses",
      "outputs": [
        {
          "internalType": "address",
          "name": "",
          "type": "address"
        }
      ],
      "stateMutability": "view",
      "type": "function"
    },
    {
      "inputs": [
        {
          "internalType": "address",
          "name": "",
          "type": "address"
        }
      ],
      "name": "schools",
      "outputs": [
        {
          "internalType": "bool",
          "name": "isVerified",
          "type": "bool"
        },
        {
          "internalType": "uint256",
          "name": "totalFundsReceived",
          "type": "uint256"
        }
      ],
      "stateMutability": "view",
      "type": "function"
    },
    {
      "inputs": [
        {
          "internalType": "address",
          "name": "",
          "type": "address"
        }
      ],
      "name": "students",
      "outputs": [
        {
          "internalType": "bool",
          "name": "isVerified",
          "type": "bool"
        },
        {
          "internalType": "address",
          "name": "school",
          "type": "address"
        },
        {
          "internalType": "uint256",
          "name": "fundsClaimed",
          "type": "uint256"
        }
      ],
      "stateMutability": "view",
      "type": "function"
    },
    {
      "inputs": [],
      "name": "totalDonations",
      "outputs": [
        {
          "internalType": "uint256",
          "name": "",
          "type": "uint256"
        }
      ],
      "stateMutability": "view",
      "type": "function"
    },
    {
      "inputs": [],
      "name": "totalSchools",
      "outputs": [
        {
          "internalType": "uint256",
          "name": "",
          "type": "uint256"
        }
      ],
      "stateMutability": "view",
      "type": "function"
    },
    {
      "inputs": [],
      "name": "usdcToken",
      "outputs": [
        {
          "internalType": "contract IERC20",
          "name": "",
          "type": "address"
        }
      ],
      "stateMutability": "view",
      "type": "function"
    },
    {
      "inputs": [
        {
          "internalType": "address",
          "name": "_school",
          "type": "address"
        }
      ],
      "name": "verifySchool",
      "outputs": [],
      "stateMutability": "nonpayable",
      "type": "function"
    },
    {
      "inputs": [
        {
          "internalType": "address",
          "name": "_student",
          "type": "address"
        },
        {
          "internalType": "address",
          "name": "_school",
          "type": "address"
        }
      ],
      "name": "verifyStudent",
      "outputs": [],
      "stateMutability": "nonpayable",
      "type": "function"
    }
  ],
  "bytecode": "0x608060405234801561001057600080fd5b5060405161215f38038061215f833981810160405281019061003291906100e2565b806000806101000a81548173ffffffffffffffffffffffffffffffffffffffff021916908373ffffffffffffffffffffffffffffffffffffffff160217905550426007819055505061010f565b600080fd5b600073ffffffffffffffffffffffffffffffffffffffff82169050919050565b60006100af82610084565b9050919050565b6100bf816100a4565b81146100ca57600080fd5b50565b6000815190506100dc816100b6565b92915050565b6000602082840312156100f8576100f761007f565b5b6000610106848285016100cd565b91505092915050565b6120418061011e6000396000f3fe608060405234801561001057600080fd5b50600436106101375760003560e01c80638ef7e36c116100b8578063aa810f361161007c578063aa810f3614610353578063ac3077731461035d578063c7573e8214610367578063ca0cdea814610383578063de2ed893146103b4578063f14faf6f146103d257610137565b80638ef7e36c146102855780639e32c13b146102a3578063a324ad24146102d3578063a6c807a914610303578063a717639c1461033557610137565b806341c4c26a116100ff57806341c4c26a146101e2578063422e694f146101fe57806350b4ea341461022e578063727790fa1461024a5780637ab64e351461027b57610137565b806311eac8551461013c57806312065fe01461015a578063213e899f146101785780633878622e146101a85780633a6a4d2e146101d8575b600080fd5b6101446103ee565b60405161015191906117f3565b60405180910390f35b610162610412565b60405161016f9190611827565b60405180910390f35b610192600480360381019061018d9190611885565b6104b4565b60405161019f91906118cd565b60405180910390f35b6101c260048036038101906101bd9190611885565b61050d565b6040516101cf91906118cd565b60405180910390f35b6101e0610566565b005b6101fc60048036038101906101f791906118e8565b610763565b005b61021860048036038101906102139190611954565b6109a5565b6040516102259190611990565b60405180910390f35b61024860048036038101906102439190611885565b6109e4565b005b610264600480360381019061025f9190611885565b610bae565b6040516102729291906119ab565b60405180910390f35b610283610bdf565b005b61028d610da8565b60405161029a9190611827565b60405180910390f35b6102bd60048036038101906102b89190611885565b610dae565b6040516102ca91906118cd565b60405180910390f35b6102ed60048036038101906102e89190611954565b610e07565b6040516102fa9190611827565b60405180910390f35b61031d60048036038101906103189190611885565b610e37565b60405161032c939291906119d4565b60405180910390f35b61033d610e8e565b60405161034a9190611827565b60405180910390f35b61035b610e94565b005b610365610fe2565b005b610381600480360381019061037c9190611885565b6112e0565b005b61039d60048036038101906103989190611885565b611521565b6040516103ab9291906119ab565b60405180910390f35b6103bc611552565b6040516103c99190611827565b60405180910390f35b6103ec60048036038101906103e79190611954565b611558565b005b60008054906101000a900473ffffffffffffffffffffffffffffffffffffffff1681565b60008060009054906101000a900473ffffffffffffffffffffffffffffffffffffffff1673ffffffffffffffffffffffffffffffffffffffff166370a08231306040518263ffffffff1660e01b815260040161046e9190611990565b602060405180830381865afa15801561048b573d6000803e3d6000fd5b505050506040513d601f19601f820116820180604052508101906104af9190611a20565b905090565b6000600160008373ffffffffffffffffffffffffffffffffffffffff1673ffffffffffffffffffffffffffffffffffffffff16815260200190815260200160002060000160009054906101000a900460ff169050919050565b6000600360008373ffffffffffffffffffffffffffffffffffffffff1673ffffffffffffffffffffffffffffffffffffffff16815260200190815260200160002060000160009054906101000a900460ff169050919050565b600060048054905090506000816005546105809190611aab565b905060005b82811015610714576000600482815481106105a3576105a2611adc565b5b9060005260206000200160009054906101000a900473ffffffffffffffffffffffffffffffffffffffff16905060008054906101000a900473ffffffffffffffffffffffffffffffffffffffff1673ffffffffffffffffffffffffffffffffffffffff1663a9059cbb82856040518363ffffffff1660e01b815260040161062b929190611b0b565b6020604051808303816000875af115801561064a573d6000803e3d6000fd5b505050506040513d601f19601f8201168201806040525081019061066e9190611b60565b6106ad576040517f08c379a00000000000000000000000000000000000000000000000000000000081526004016106a490611bea565b60405180910390fd5b82600260008373ffffffffffffffffffffffffffffffffffffffff1673ffffffffffffffffffffffffffffffffffffffff16815260200190815260200160002060010160008282546106ff9190611c0a565b92505081905550508080600101915050610585565b50426007819055507f40d8c854b6d5329fd5fccae04f5a931d7529963fbab81aced7337394e737cb4d6005548360405161074f929190611c3e565b60405180910390a160006005819055505050565b600260008273ffffffffffffffffffffffffffffffffffffffff1673ffffffffffffffffffffffffffffffffffffffff16815260200190815260200160002060000160009054906101000a900460ff166107f2576040517f08c379a00000000000000000000000000000000000000000000000000000000081526004016107e990611cb3565b60405180910390fd5b600360008373ffffffffffffffffffffffffffffffffffffffff1673ffffffffffffffffffffffffffffffffffffffff16815260200190815260200160002060000160009054906101000a900460ff1615610882576040517f08c379a000000000000000000000000000000000000000000000000000000000815260040161087990611d1f565b60405180910390fd5b60405180606001604052806001151581526020018273ffffffffffffffffffffffffffffffffffffffff1681526020016000815250600360008473ffffffffffffffffffffffffffffffffffffffff1673ffffffffffffffffffffffffffffffffffffffff16815260200190815260200160002060008201518160000160006101000a81548160ff02191690831515021790555060208201518160000160016101000a81548173ffffffffffffffffffffffffffffffffffffffff021916908373ffffffffffffffffffffffffffffffffffffffff160217905550604082015181600101559050507fb113da7b29acd8f869f4aad1e8c637b032ae20e0a20a993e61327767a1fdf968826040516109999190611990565b60405180910390a15050565b600481815481106109b557600080fd5b906000526020600020016000915054906101000a900473ffffffffffffffffffffffffffffffffffffffff1681565b600260008273ffffffffffffffffffffffffffffffffffffffff1673ffffffffffffffffffffffffffffffffffffffff16815260200190815260200160002060000160009054906101000a900460ff1615610a74576040517f08c379a0000000000000000000000000000000000000000000000000000000008152600401610a6b90611d8b565b60405180910390fd5b60405180604001604052806001151581526020016000815250600260008373ffffffffffffffffffffffffffffffffffffffff1673ffffffffffffffffffffffffffffffffffffffff16815260200190815260200160002060008201518160000160006101000a81548160ff021916908315150217905550602082015181600101559050506004819080600181540180825580915050600190039060005260206000200160009091909190916101000a81548173ffffffffffffffffffffffffffffffffffffffff021916908373ffffffffffffffffffffffffffffffffffffffff16021790555060066000815480929190610b6f90611dab565b91905055507f9a51c0350c80ee0e3296d124da687969eccd0c3200b05878404a5168eb0549c981604051610ba39190611990565b60405180910390a150565b60026020528060005260406000206000915090508060000160009054906101000a900460ff16908060010154905082565b600260003373ffffffffffffffffffffffffffffffffffffffff1673ffffffffffffffffffffffffffffffffffffffff16815260200190815260200160002060000160009054906101000a900460ff1615610c6f576040517f08c379a0000000000000000000000000000000000000000000000000000000008152600401610c6690611d8b565b60405180910390fd5b60405180604001604052806001151581526020016000815250600260003373ffffffffffffffffffffffffffffffffffffffff1673ffffffffffffffffffffffffffffffffffffffff16815260200190815260200160002060008201518160000160006101000a81548160ff021916908315150217905550602082015181600101559050506004339080600181540180825580915050600190039060005260206000200160009091909190916101000a81548173ffffffffffffffffffffffffffffffffffffffff021916908373ffffffffffffffffffffffffffffffffffffffff16021790555060066000815480929190610d6a90611dab565b91905055507f9a51c0350c80ee0e3296d124da687969eccd0c3200b05878404a5168eb0549c933604051610d9e9190611990565b60405180910390a1565b60065481565b6000600260008373ffffffffffffffffffffffffffffffffffffffff1673ffffffffffffffffffffffffffffffffffffffff16815260200190815260200160002060000160009054906101000a900460ff169050919050565b60006001600c62278d0084610e1c9190611aab565b610e269190611df3565b610e309190611c0a565b9050919050565b60036020528060005260406000206000915090508060000160009054906101000a900460ff16908060000160019054906101000a900473ffffffffffffffffffffffffffffffffffffffff16908060010154905083565b60075481565b600160003373ffffffffffffffffffffffffffffffffffffffff1673ffffffffffffffffffffffffffffffffffffffff16815260200190815260200160002060000160009054906101000a900460ff1615610f24576040517f08c379a0000000000000000000000000000000000000000000000000000000008152600401610f1b90611e70565b60405180910390fd5b60405180604001604052806001151581526020016000815250600160003373ffffffffffffffffffffffffffffffffffffffff1673ffffffffffffffffffffffffffffffffffffffff16815260200190815260200160002060008201518160000160006101000a81548160ff021916908315150217905550602082015181600101559050507fe07c5c81f3582b5a3dd36cadd627347f87083a40463dcc9eaf0d7a819c55dc1433604051610fd89190611990565b60405180910390a1565b600360003373ffffffffffffffffffffffffffffffffffffffff1673ffffffffffffffffffffffffffffffffffffffff16815260200190815260200160002060000160009054906101000a900460ff16611071576040517f08c379a000000000000000000000000000000000000000000000000000000000815260040161106890611edc565b60405180910390fd5b6000600360003373ffffffffffffffffffffffffffffffffffffffff1673ffffffffffffffffffffffffffffffffffffffff16815260200190815260200160002060000160019054906101000a900473ffffffffffffffffffffffffffffffffffffffff169050600260008273ffffffffffffffffffffffffffffffffffffffff1673ffffffffffffffffffffffffffffffffffffffff16815260200190815260200160002060000160009054906101000a900460ff16611167576040517f08c379a000000000000000000000000000000000000000000000000000000000815260040161115e90611cb3565b60405180910390fd5b60006064905060008054906101000a900473ffffffffffffffffffffffffffffffffffffffff1673ffffffffffffffffffffffffffffffffffffffff1663a9059cbb33836040518363ffffffff1660e01b81526004016111c8929190611b0b565b6020604051808303816000875af11580156111e7573d6000803e3d6000fd5b505050506040513d601f19601f8201168201806040525081019061120b9190611b60565b61124a576040517f08c379a000000000000000000000000000000000000000000000000000000000815260040161124190611bea565b60405180910390fd5b80600360003373ffffffffffffffffffffffffffffffffffffffff1673ffffffffffffffffffffffffffffffffffffffff168152602001908152602001600020600101600082825461129c9190611c0a565b925050819055507feaff4b37086828766ad3268786972c0cd24259d4c87a80f9d3963a3c3d999b0d33826040516112d4929190611b0b565b60405180910390a15050565b600260008273ffffffffffffffffffffffffffffffffffffffff1673ffffffffffffffffffffffffffffffffffffffff16815260200190815260200160002060000160009054906101000a900460ff1661136f576040517f08c379a000000000000000000000000000000000000000000000000000000000815260040161136690611cb3565b60405180910390fd5b600360003373ffffffffffffffffffffffffffffffffffffffff1673ffffffffffffffffffffffffffffffffffffffff16815260200190815260200160002060000160009054906101000a900460ff16156113ff576040517f08c379a00000000000000000000000000000000000000000000000000000000081526004016113f690611d1f565b60405180910390fd5b60405180606001604052806001151581526020018273ffffffffffffffffffffffffffffffffffffffff1681526020016000815250600360003373ffffffffffffffffffffffffffffffffffffffff1673ffffffffffffffffffffffffffffffffffffffff16815260200190815260200160002060008201518160000160006101000a81548160ff02191690831515021790555060208201518160000160016101000a81548173ffffffffffffffffffffffffffffffffffffffff021916908373ffffffffffffffffffffffffffffffffffffffff160217905550604082015181600101559050507fb113da7b29acd8f869f4aad1e8c637b032ae20e0a20a993e61327767a1fdf968336040516115169190611990565b60405180910390a150565b60016020528060005260406000206000915090508060000160009054906101000a900460ff16908060010154905082565b60055481565b600160003373ffffffffffffffffffffffffffffffffffffffff1673ffffffffffffffffffffffffffffffffffffffff16815260200190815260200160002060000160009054906101000a900460ff166115e7576040517f08c379a00000000000000000000000000000000000000000000000000000000081526004016115de90611f48565b60405180910390fd5b60008054906101000a900473ffffffffffffffffffffffffffffffffffffffff1673ffffffffffffffffffffffffffffffffffffffff166323b872dd3330846040518463ffffffff1660e01b815260040161164493929190611f68565b6020604051808303816000875af1158015611663573d6000803e3d6000fd5b505050506040513d601f19601f820116820180604052508101906116879190611b60565b6116c6576040517f08c379a00000000000000000000000000000000000000000000000000000000081526004016116bd90611feb565b60405180910390fd5b80600160003373ffffffffffffffffffffffffffffffffffffffff1673ffffffffffffffffffffffffffffffffffffffff16815260200190815260200160002060010160008282546117189190611c0a565b9250508190555080600560008282546117319190611c0a565b925050819055507faa13962bc79c7a0bc42cb8169b1705f0a6b55cc404ffb8a589d771ca786759783382604051611769929190611b0b565b60405180910390a150565b600073ffffffffffffffffffffffffffffffffffffffff82169050919050565b6000819050919050565b60006117b96117b46117af84611774565b611794565b611774565b9050919050565b60006117cb8261179e565b9050919050565b60006117dd826117c0565b9050919050565b6117ed816117d2565b82525050565b600060208201905061180860008301846117e4565b92915050565b6000819050919050565b6118218161180e565b82525050565b600060208201905061183c6000830184611818565b92915050565b600080fd5b600061185282611774565b9050919050565b61186281611847565b811461186d57600080fd5b50565b60008135905061187f81611859565b92915050565b60006020828403121561189b5761189a611842565b5b60006118a984828501611870565b91505092915050565b60008115159050919050565b6118c7816118b2565b82525050565b60006020820190506118e260008301846118be565b92915050565b600080604083850312156118ff576118fe611842565b5b600061190d85828601611870565b925050602061191e85828601611870565b9150509250929050565b6119318161180e565b811461193c57600080fd5b50565b60008135905061194e81611928565b92915050565b60006020828403121561196a57611969611842565b5b60006119788482850161193f565b91505092915050565b61198a81611847565b82525050565b60006020820190506119a56000830184611981565b92915050565b60006040820190506119c060008301856118be565b6119cd6020830184611818565b9392505050565b60006060820190506119e960008301866118be565b6119f66020830185611981565b611a036040830184611818565b949350505050565b600081519050611a1a81611928565b92915050565b600060208284031215611a3657611a35611842565b5b6000611a4484828501611a0b565b91505092915050565b7f4e487b7100000000000000000000000000000000000000000000000000000000600052601260045260246000fd5b7f4e487b7100000000000000000000000000000000000000000000000000000000600052601160045260246000fd5b6000611ab68261180e565b9150611ac18361180e565b925082611ad157611ad0611a4d565b5b828204905092915050565b7f4e487b7100000000000000000000000000000000000000000000000000000000600052603260045260246000fd5b6000604082019050611b206000830185611981565b611b2d6020830184611818565b9392505050565b611b3d816118b2565b8114611b4857600080fd5b50565b600081519050611b5a81611b34565b92915050565b600060208284031215611b7657611b75611842565b5b6000611b8484828501611b4b565b91505092915050565b600082825260208201905092915050565b7f5472616e73666572206661696c65640000000000000000000000000000000000600082015250565b6000611bd4600f83611b8d565b9150611bdf82611b9e565b602082019050919050565b60006020820190508181036000830152611c0381611bc7565b9050919050565b6000611c158261180e565b9150611c208361180e565b9250828201905080821115611c3857611c37611a7c565b5b92915050565b6000604082019050611c536000830185611818565b611c606020830184611818565b9392505050565b7f5363686f6f6c206e6f7420766572696669656400000000000000000000000000600082015250565b6000611c9d601383611b8d565b9150611ca882611c67565b602082019050919050565b60006020820190508181036000830152611ccc81611c90565b9050919050565b7f53747564656e7420616c72656164792076657269666965640000000000000000600082015250565b6000611d09601883611b8d565b9150611d1482611cd3565b602082019050919050565b60006020820190508181036000830152611d3881611cfc565b9050919050565b7f5363686f6f6c20616c7265616479207665726966696564000000000000000000600082015250565b6000611d75601783611b8d565b9150611d8082611d3f565b602082019050919050565b60006020820190508181036000830152611da481611d68565b9050919050565b6000611db68261180e565b91507fffffffffffffffffffffffffffffffffffffffffffffffffffffffffffffffff8203611de857611de7611a7c565b5b600182019050919050565b6000611dfe8261180e565b9150611e098361180e565b925082611e1957611e18611a4d565b5b828206905092915050565b7f446f6e6f7220616c726561647920726567697374657265640000000000000000600082015250565b6000611e5a601883611b8d565b9150611e6582611e24565b602082019050919050565b60006020820190508181036000830152611e8981611e4d565b9050919050565b7f53747564656e74206e6f74207665726966696564000000000000000000000000600082015250565b6000611ec6601483611b8d565b9150611ed182611e90565b602082019050919050565b60006020820190508181036000830152611ef581611eb9565b9050919050565b7f446f6e6f72206e6f742072656769737465726564000000000000000000000000600082015250565b6000611f32601483611b8d565b9150611f3d82611efc565b602082019050919050565b60006020820190508181036000830152611f6181611f25565b9050919050565b6000606082019050611f7d6000830186611981565b611f8a6020830185611981565b611f976040830184611818565b949350505050565b7f55534443207472616e73666572206661696c6564000000000000000000000000600082015250565b6000611fd5601483611b8d565b9150611fe082611f9f565b602082019050919050565b6000602082019050818103600083015261200481611fc8565b905091905056fea2646970667358221220e8dbb35cbef5c06b5c50aa3cfab6f6ccf8eb0906d905a8618723fdafa0f498e764736f6c634300081b0033",
  "linkReferences": {},
  "deployedLinkReferences": {}
}