{
  "_format": "hh-sol-artifact-1",
  "contractName": "DonorAfrica",
  "sourceName": "contracts/DonorAfrica.sol",
  "abi": [
    {
      "inputs": [
        {
          "internalType": "address",
          "name": "_usdcToken",
          "type": "address"
        }
      ],
      "stateMutability": "nonpayable",
      "type": "constructor"
    },
    {
      "anonymous": false,
      "inputs": [
        {
          "indexed": false,
          "internalType": "address",
          "name": "donor",
          "type": "address"
        },
        {
          "indexed": false,
          "internalType": "uint256",
          "name": "amount",
          "type": "uint256"
        }
      ],
      "name": "DonationMade",
      "type": "event"
    },
    {
      "anonymous": false,
      "inputs": [
        {
          "indexed": false,
          "internalType": "address",
          "name": "donor",
          "type": "address"
        }
      ],
      "name": "DonorRegistered",
      "type": "event"
    },
    {
      "anonymous": false,
      "inputs": [
        {
          "indexed": false,
          "internalType": "uint256",
          "name": "totalAmount",
          "type": "uint256"
        },
        {
          "indexed": false,
          "internalType": "uint256",
          "name": "numSchools",
          "type": "uint256"
        }
      ],
      "name": "FundsDistributed",
      "type": "event"
    },
    {
      "anonymous": false,
      "inputs": [
        {
          "indexed": false,
          "internalType": "address",
          "name": "student",
          "type": "address"
        },
        {
          "indexed": false,
          "internalType": "uint256",
          "name": "amount",
          "type": "uint256"
        }
      ],
      "name": "FundsWithdrawn",
      "type": "event"
    },
    {
      "anonymous": false,
      "inputs": [
        {
          "indexed": false,
          "internalType": "address",
          "name": "school",
          "type": "address"
        }
      ],
      "name": "SchoolVerified",
      "type": "event"
    },
    {
      "anonymous": false,
      "inputs": [
        {
          "indexed": false,
          "internalType": "address",
          "name": "student",
          "type": "address"
        }
      ],
      "name": "StudentVerified",
      "type": "event"
    },
    {
      "inputs": [],
      "name": "claimFunds",
      "outputs": [],
      "stateMutability": "nonpayable",
      "type": "function"
    },
    {
      "inputs": [],
      "name": "distributeFunds",
      "outputs": [],
      "stateMutability": "nonpayable",
      "type": "function"
    },
    {
      "inputs": [
        {
          "internalType": "uint256",
          "name": "amount",
          "type": "uint256"
        }
      ],
      "name": "donate",
      "outputs": [],
      "stateMutability": "nonpayable",
      "type": "function"
    },
    {
      "inputs": [
        {
          "internalType": "address",
          "name": "",
          "type": "address"
        }
      ],
      "name": "donors",
      "outputs": [
        {
          "internalType": "bool",
          "name": "isRegistered",
          "type": "bool"
        },
        {
          "internalType": "uint256",
          "name": "totalDonated",
          "type": "uint256"
        }
      ],
      "stateMutability": "view",
      "type": "function"
    },
    {
      "inputs": [
        {
          "internalType": "uint256",
          "name": "_timestamp",
          "type": "uint256"
        }
      ],
      "name": "getMonth",
      "outputs": [
        {
          "internalType": "uint256",
          "name": "",
          "type": "uint256"
        }
      ],
      "stateMutability": "pure",
      "type": "function"
    },
    {
      "inputs": [
        {
          "internalType": "address",
          "name": "_donor",
          "type": "address"
        }
      ],
      "name": "isDonorRegistered",
      "outputs": [
        {
          "internalType": "bool",
          "name": "",
          "type": "bool"
        }
      ],
      "stateMutability": "view",
      "type": "function"
    },
    {
      "inputs": [
        {
          "internalType": "address",
          "name": "_school",
          "type": "address"
        }
      ],
      "name": "isSchoolVerified",
      "outputs": [
        {
          "internalType": "bool",
          "name": "",
          "type": "bool"
        }
      ],
      "stateMutability": "view",
      "type": "function"
    },
    {
      "inputs": [
        {
          "internalType": "address",
          "name": "_student",
          "type": "address"
        }
      ],
      "name": "isStudentVerified",
      "outputs": [
        {
          "internalType": "bool",
          "name": "",
          "type": "bool"
        }
      ],
      "stateMutability": "view",
      "type": "function"
    },
    {
      "inputs": [],
      "name": "lastDistribution",
      "outputs": [
        {
          "internalType": "uint256",
          "name": "",
          "type": "uint256"
        }
      ],
      "stateMutability": "view",
      "type": "function"
    },
    {
      "inputs": [],
      "name": "registerDonor",
      "outputs": [],
      "stateMutability": "nonpayable",
      "type": "function"
    },
    {
      "inputs": [],
      "name": "registerSchool",
      "outputs": [],
      "stateMutability": "nonpayable",
      "type": "function"
    },
    {
      "inputs": [
        {
          "internalType": "address",
          "name": "_school",
          "type": "address"
        }
      ],
      "name": "registerStudent",
      "outputs": [],
      "stateMutability": "nonpayable",
      "type": "function"
    },
    {
      "inputs": [
        {
          "internalType": "uint256",
          "name": "",
          "type": "uint256"
        }
      ],
      "name": "schoolAddresses",
      "outputs": [
        {
          "internalType": "address",
          "name": "",
          "type": "address"
        }
      ],
      "stateMutability": "view",
      "type": "function"
    },
    {
      "inputs": [
        {
          "internalType": "address",
          "name": "",
          "type": "address"
        }
      ],
      "name": "schools",
      "outputs": [
        {
          "internalType": "bool",
          "name": "isVerified",
          "type": "bool"
        },
        {
          "internalType": "uint256",
          "name": "totalFundsReceived",
          "type": "uint256"
        }
      ],
      "stateMutability": "view",
      "type": "function"
    },
    {
      "inputs": [
        {
          "internalType": "address",
          "name": "",
          "type": "address"
        }
      ],
      "name": "students",
      "outputs": [
        {
          "internalType": "bool",
          "name": "isVerified",
          "type": "bool"
        },
        {
          "internalType": "address",
          "name": "school",
          "type": "address"
        },
        {
          "internalType": "uint256",
          "name": "fundsClaimed",
          "type": "uint256"
        }
      ],
      "stateMutability": "view",
      "type": "function"
    },
    {
      "inputs": [],
      "name": "totalDonations",
      "outputs": [
        {
          "internalType": "uint256",
          "name": "",
          "type": "uint256"
        }
      ],
      "stateMutability": "view",
      "type": "function"
    },
    {
      "inputs": [],
      "name": "totalSchools",
      "outputs": [
        {
          "internalType": "uint256",
          "name": "",
          "type": "uint256"
        }
      ],
      "stateMutability": "view",
      "type": "function"
    },
    {
      "inputs": [],
      "name": "usdcToken",
      "outputs": [
        {
          "internalType": "contract IERC20",
          "name": "",
          "type": "address"
        }
      ],
      "stateMutability": "view",
      "type": "function"
    },
    {
      "inputs": [
        {
          "internalType": "address",
          "name": "_school",
          "type": "address"
        }
      ],
      "name": "verifySchool",
      "outputs": [],
      "stateMutability": "nonpayable",
      "type": "function"
    },
    {
      "inputs": [
        {
          "internalType": "address",
          "name": "_student",
          "type": "address"
        },
        {
          "internalType": "address",
          "name": "_school",
          "type": "address"
        }
      ],
      "name": "verifyStudent",
      "outputs": [],
      "stateMutability": "nonpayable",
      "type": "function"
    }
  ],
  "bytecode": "0x608060405234801561001057600080fd5b50604051611e2c380380611e2c833981810160405281019061003291906100e2565b806000806101000a81548173ffffffffffffffffffffffffffffffffffffffff021916908373ffffffffffffffffffffffffffffffffffffffff160217905550426007819055505061010f565b600080fd5b600073ffffffffffffffffffffffffffffffffffffffff82169050919050565b60006100af82610084565b9050919050565b6100bf816100a4565b81146100ca57600080fd5b50565b6000815190506100dc816100b6565b92915050565b6000602082840312156100f8576100f761007f565b5b6000610106848285016100cd565b91505092915050565b611d0e8061011e6000396000f3fe608060405234801561001057600080fd5b506004361061012c5760003560e01c80639e32c13b116100ad578063ac30777311610071578063ac30777314610334578063c7573e821461033e578063ca0cdea81461035a578063de2ed8931461038b578063f14faf6f146103a95761012c565b80639e32c13b1461027a578063a324ad24146102aa578063a6c807a9146102da578063a717639c1461030c578063aa810f361461032a5761012c565b8063422e694f116100f4578063422e694f146101d557806350b4ea3414610205578063727790fa146102215780637ab64e35146102525780638ef7e36c1461025c5761012c565b806311eac85514610131578063213e899f1461014f5780633878622e1461017f5780633a6a4d2e146101af57806341c4c26a146101b9575b600080fd5b6101396103c5565b604051610146919061156e565b60405180910390f35b610169600480360381019061016491906115cc565b6103e9565b6040516101769190611614565b60405180910390f35b610199600480360381019061019491906115cc565b610442565b6040516101a69190611614565b60405180910390f35b6101b761049b565b005b6101d360048036038101906101ce919061162f565b6105bb565b005b6101ef60048036038101906101ea91906116a5565b6107fd565b6040516101fc91906116e1565b60405180910390f35b61021f600480360381019061021a91906115cc565b61083c565b005b61023b600480360381019061023691906115cc565b610a06565b60405161024992919061170b565b60405180910390f35b61025a610a37565b005b610264610c00565b6040516102719190611734565b60405180910390f35b610294600480360381019061028f91906115cc565b610c06565b6040516102a19190611614565b60405180910390f35b6102c460048036038101906102bf91906116a5565b610c5f565b6040516102d19190611734565b60405180910390f35b6102f460048036038101906102ef91906115cc565b610c8f565b6040516103039392919061174f565b60405180910390f35b610314610ce6565b6040516103219190611734565b60405180910390f35b610332610cec565b005b61033c610e3a565b005b610358600480360381019061035391906115cc565b61105b565b005b610374600480360381019061036f91906115cc565b61129c565b60405161038292919061170b565b60405180910390f35b6103936112cd565b6040516103a09190611734565b60405180910390f35b6103c360048036038101906103be91906116a5565b6112d3565b005b60008054906101000a900473ffffffffffffffffffffffffffffffffffffffff1681565b6000600160008373ffffffffffffffffffffffffffffffffffffffff1673ffffffffffffffffffffffffffffffffffffffff16815260200190815260200160002060000160009054906101000a900460ff169050919050565b6000600360008373ffffffffffffffffffffffffffffffffffffffff1673ffffffffffffffffffffffffffffffffffffffff16815260200190815260200160002060000160009054906101000a900460ff169050919050565b600060048054905090506000816005546104b591906117e4565b905060005b8281101561056c576000600482815481106104d8576104d7611815565b5b9060005260206000200160009054906101000a900473ffffffffffffffffffffffffffffffffffffffff16905082600260008373ffffffffffffffffffffffffffffffffffffffff1673ffffffffffffffffffffffffffffffffffffffff16815260200190815260200160002060010160008282546105579190611844565b925050819055505080806001019150506104ba565b50426007819055507f40d8c854b6d5329fd5fccae04f5a931d7529963fbab81aced7337394e737cb4d600554836040516105a7929190611878565b60405180910390a160006005819055505050565b600260008273ffffffffffffffffffffffffffffffffffffffff1673ffffffffffffffffffffffffffffffffffffffff16815260200190815260200160002060000160009054906101000a900460ff1661064a576040517f08c379a0000000000000000000000000000000000000000000000000000000008152600401610641906118fe565b60405180910390fd5b600360008373ffffffffffffffffffffffffffffffffffffffff1673ffffffffffffffffffffffffffffffffffffffff16815260200190815260200160002060000160009054906101000a900460ff16156106da576040517f08c379a00000000000000000000000000000000000000000000000000000000081526004016106d19061196a565b60405180910390fd5b60405180606001604052806001151581526020018273ffffffffffffffffffffffffffffffffffffffff1681526020016000815250600360008473ffffffffffffffffffffffffffffffffffffffff1673ffffffffffffffffffffffffffffffffffffffff16815260200190815260200160002060008201518160000160006101000a81548160ff02191690831515021790555060208201518160000160016101000a81548173ffffffffffffffffffffffffffffffffffffffff021916908373ffffffffffffffffffffffffffffffffffffffff160217905550604082015181600101559050507fb113da7b29acd8f869f4aad1e8c637b032ae20e0a20a993e61327767a1fdf968826040516107f191906116e1565b60405180910390a15050565b6004818154811061080d57600080fd5b906000526020600020016000915054906101000a900473ffffffffffffffffffffffffffffffffffffffff1681565b600260008273ffffffffffffffffffffffffffffffffffffffff1673ffffffffffffffffffffffffffffffffffffffff16815260200190815260200160002060000160009054906101000a900460ff16156108cc576040517f08c379a00000000000000000000000000000000000000000000000000000000081526004016108c3906119d6565b60405180910390fd5b60405180604001604052806001151581526020016000815250600260008373ffffffffffffffffffffffffffffffffffffffff1673ffffffffffffffffffffffffffffffffffffffff16815260200190815260200160002060008201518160000160006101000a81548160ff021916908315150217905550602082015181600101559050506004819080600181540180825580915050600190039060005260206000200160009091909190916101000a81548173ffffffffffffffffffffffffffffffffffffffff021916908373ffffffffffffffffffffffffffffffffffffffff160217905550600660008154809291906109c7906119f6565b91905055507f9a51c0350c80ee0e3296d124da687969eccd0c3200b05878404a5168eb0549c9816040516109fb91906116e1565b60405180910390a150565b60026020528060005260406000206000915090508060000160009054906101000a900460ff16908060010154905082565b600260003373ffffffffffffffffffffffffffffffffffffffff1673ffffffffffffffffffffffffffffffffffffffff16815260200190815260200160002060000160009054906101000a900460ff1615610ac7576040517f08c379a0000000000000000000000000000000000000000000000000000000008152600401610abe906119d6565b60405180910390fd5b60405180604001604052806001151581526020016000815250600260003373ffffffffffffffffffffffffffffffffffffffff1673ffffffffffffffffffffffffffffffffffffffff16815260200190815260200160002060008201518160000160006101000a81548160ff021916908315150217905550602082015181600101559050506004339080600181540180825580915050600190039060005260206000200160009091909190916101000a81548173ffffffffffffffffffffffffffffffffffffffff021916908373ffffffffffffffffffffffffffffffffffffffff16021790555060066000815480929190610bc2906119f6565b91905055507f9a51c0350c80ee0e3296d124da687969eccd0c3200b05878404a5168eb0549c933604051610bf691906116e1565b60405180910390a1565b60065481565b6000600260008373ffffffffffffffffffffffffffffffffffffffff1673ffffffffffffffffffffffffffffffffffffffff16815260200190815260200160002060000160009054906101000a900460ff169050919050565b60006001600c62278d0084610c7491906117e4565b610c7e9190611a3e565b610c889190611844565b9050919050565b60036020528060005260406000206000915090508060000160009054906101000a900460ff16908060000160019054906101000a900473ffffffffffffffffffffffffffffffffffffffff16908060010154905083565b60075481565b600160003373ffffffffffffffffffffffffffffffffffffffff1673ffffffffffffffffffffffffffffffffffffffff16815260200190815260200160002060000160009054906101000a900460ff1615610d7c576040517f08c379a0000000000000000000000000000000000000000000000000000000008152600401610d7390611abb565b60405180910390fd5b60405180604001604052806001151581526020016000815250600160003373ffffffffffffffffffffffffffffffffffffffff1673ffffffffffffffffffffffffffffffffffffffff16815260200190815260200160002060008201518160000160006101000a81548160ff021916908315150217905550602082015181600101559050507fe07c5c81f3582b5a3dd36cadd627347f87083a40463dcc9eaf0d7a819c55dc1433604051610e3091906116e1565b60405180910390a1565b600360003373ffffffffffffffffffffffffffffffffffffffff1673ffffffffffffffffffffffffffffffffffffffff16815260200190815260200160002060000160009054906101000a900460ff16610ec9576040517f08c379a0000000000000000000000000000000000000000000000000000000008152600401610ec090611b27565b60405180910390fd5b6000600360003373ffffffffffffffffffffffffffffffffffffffff1673ffffffffffffffffffffffffffffffffffffffff16815260200190815260200160002060000160019054906101000a900473ffffffffffffffffffffffffffffffffffffffff169050600260008273ffffffffffffffffffffffffffffffffffffffff1673ffffffffffffffffffffffffffffffffffffffff16815260200190815260200160002060000160009054906101000a900460ff16610fbf576040517f08c379a0000000000000000000000000000000000000000000000000000000008152600401610fb6906118fe565b60405180910390fd5b60006064905080600360003373ffffffffffffffffffffffffffffffffffffffff1673ffffffffffffffffffffffffffffffffffffffff16815260200190815260200160002060010160008282546110179190611844565b925050819055507feaff4b37086828766ad3268786972c0cd24259d4c87a80f9d3963a3c3d999b0d338260405161104f929190611b47565b60405180910390a15050565b600260008273ffffffffffffffffffffffffffffffffffffffff1673ffffffffffffffffffffffffffffffffffffffff16815260200190815260200160002060000160009054906101000a900460ff166110ea576040517f08c379a00000000000000000000000000000000000000000000000000000000081526004016110e1906118fe565b60405180910390fd5b600360003373ffffffffffffffffffffffffffffffffffffffff1673ffffffffffffffffffffffffffffffffffffffff16815260200190815260200160002060000160009054906101000a900460ff161561117a576040517f08c379a00000000000000000000000000000000000000000000000000000000081526004016111719061196a565b60405180910390fd5b60405180606001604052806001151581526020018273ffffffffffffffffffffffffffffffffffffffff1681526020016000815250600360003373ffffffffffffffffffffffffffffffffffffffff1673ffffffffffffffffffffffffffffffffffffffff16815260200190815260200160002060008201518160000160006101000a81548160ff02191690831515021790555060208201518160000160016101000a81548173ffffffffffffffffffffffffffffffffffffffff021916908373ffffffffffffffffffffffffffffffffffffffff160217905550604082015181600101559050507fb113da7b29acd8f869f4aad1e8c637b032ae20e0a20a993e61327767a1fdf9683360405161129191906116e1565b60405180910390a150565b60016020528060005260406000206000915090508060000160009054906101000a900460ff16908060010154905082565b60055481565b600160003373ffffffffffffffffffffffffffffffffffffffff1673ffffffffffffffffffffffffffffffffffffffff16815260200190815260200160002060000160009054906101000a900460ff16611362576040517f08c379a000000000000000000000000000000000000000000000000000000000815260040161135990611bbc565b60405180910390fd5b60008054906101000a900473ffffffffffffffffffffffffffffffffffffffff1673ffffffffffffffffffffffffffffffffffffffff166323b872dd3330846040518463ffffffff1660e01b81526004016113bf93929190611bdc565b6020604051808303816000875af11580156113de573d6000803e3d6000fd5b505050506040513d601f19601f820116820180604052508101906114029190611c3f565b611441576040517f08c379a000000000000000000000000000000000000000000000000000000000815260040161143890611cb8565b60405180910390fd5b80600160003373ffffffffffffffffffffffffffffffffffffffff1673ffffffffffffffffffffffffffffffffffffffff16815260200190815260200160002060010160008282546114939190611844565b9250508190555080600560008282546114ac9190611844565b925050819055507faa13962bc79c7a0bc42cb8169b1705f0a6b55cc404ffb8a589d771ca7867597833826040516114e4929190611b47565b60405180910390a150565b600073ffffffffffffffffffffffffffffffffffffffff82169050919050565b6000819050919050565b600061153461152f61152a846114ef565b61150f565b6114ef565b9050919050565b600061154682611519565b9050919050565b60006115588261153b565b9050919050565b6115688161154d565b82525050565b6000602082019050611583600083018461155f565b92915050565b600080fd5b6000611599826114ef565b9050919050565b6115a98161158e565b81146115b457600080fd5b50565b6000813590506115c6816115a0565b92915050565b6000602082840312156115e2576115e1611589565b5b60006115f0848285016115b7565b91505092915050565b60008115159050919050565b61160e816115f9565b82525050565b60006020820190506116296000830184611605565b92915050565b6000806040838503121561164657611645611589565b5b6000611654858286016115b7565b9250506020611665858286016115b7565b9150509250929050565b6000819050919050565b6116828161166f565b811461168d57600080fd5b50565b60008135905061169f81611679565b92915050565b6000602082840312156116bb576116ba611589565b5b60006116c984828501611690565b91505092915050565b6116db8161158e565b82525050565b60006020820190506116f660008301846116d2565b92915050565b6117058161166f565b82525050565b60006040820190506117206000830185611605565b61172d60208301846116fc565b9392505050565b600060208201905061174960008301846116fc565b92915050565b60006060820190506117646000830186611605565b61177160208301856116d2565b61177e60408301846116fc565b949350505050565b7f4e487b7100000000000000000000000000000000000000000000000000000000600052601260045260246000fd5b7f4e487b7100000000000000000000000000000000000000000000000000000000600052601160045260246000fd5b60006117ef8261166f565b91506117fa8361166f565b92508261180a57611809611786565b5b828204905092915050565b7f4e487b7100000000000000000000000000000000000000000000000000000000600052603260045260246000fd5b600061184f8261166f565b915061185a8361166f565b9250828201905080821115611872576118716117b5565b5b92915050565b600060408201905061188d60008301856116fc565b61189a60208301846116fc565b9392505050565b600082825260208201905092915050565b7f5363686f6f6c206e6f7420766572696669656400000000000000000000000000600082015250565b60006118e86013836118a1565b91506118f3826118b2565b602082019050919050565b60006020820190508181036000830152611917816118db565b9050919050565b7f53747564656e7420616c72656164792076657269666965640000000000000000600082015250565b60006119546018836118a1565b915061195f8261191e565b602082019050919050565b6000602082019050818103600083015261198381611947565b9050919050565b7f5363686f6f6c20616c7265616479207665726966696564000000000000000000600082015250565b60006119c06017836118a1565b91506119cb8261198a565b602082019050919050565b600060208201905081810360008301526119ef816119b3565b9050919050565b6000611a018261166f565b91507fffffffffffffffffffffffffffffffffffffffffffffffffffffffffffffffff8203611a3357611a326117b5565b5b600182019050919050565b6000611a498261166f565b9150611a548361166f565b925082611a6457611a63611786565b5b828206905092915050565b7f446f6e6f7220616c726561647920726567697374657265640000000000000000600082015250565b6000611aa56018836118a1565b9150611ab082611a6f565b602082019050919050565b60006020820190508181036000830152611ad481611a98565b9050919050565b7f53747564656e74206e6f74207665726966696564000000000000000000000000600082015250565b6000611b116014836118a1565b9150611b1c82611adb565b602082019050919050565b60006020820190508181036000830152611b4081611b04565b9050919050565b6000604082019050611b5c60008301856116d2565b611b6960208301846116fc565b9392505050565b7f446f6e6f72206e6f742072656769737465726564000000000000000000000000600082015250565b6000611ba66014836118a1565b9150611bb182611b70565b602082019050919050565b60006020820190508181036000830152611bd581611b99565b9050919050565b6000606082019050611bf160008301866116d2565b611bfe60208301856116d2565b611c0b60408301846116fc565b949350505050565b611c1c816115f9565b8114611c2757600080fd5b50565b600081519050611c3981611c13565b92915050565b600060208284031215611c5557611c54611589565b5b6000611c6384828501611c2a565b91505092915050565b7f55534443207472616e73666572206661696c6564000000000000000000000000600082015250565b6000611ca26014836118a1565b9150611cad82611c6c565b602082019050919050565b60006020820190508181036000830152611cd181611c95565b905091905056fea26469706673582212205134b8d07b240e6a4bd64fa7f71298ba053b9944762fda57839ecc1b3ded39a364736f6c634300081b0033",
  "linkReferences": {},
  "deployedLinkReferences": {}
}